:020000040800F2
:1000000000280020A5150008351500083B1500083C
:1000100041150008471500084D15000800000000B4
:100020000000000000000000000000005315000860
:100030005F150008000000006B1500087715000828
:10004000ED150008ED150008ED150008ED15000888
:10005000ED150008ED150008ED150008ED15000878
:10006000ED150008ED150008ED150008ED15000868
:10007000ED150008ED150008ED150008ED15000858
:10008000ED150008ED150008ED150008ED15000848
:10009000ED150008ED150008ED150008ED15000838
:1000A000ED150008ED150008ED150008ED15000828
:1000B00085150008ED15000800000000ED1500088A
:1000C000ED1500080000000000000000ED1500081C
:1000D00000000000ED150008ED150008000000000C
:1000E000ED150008ED150008ED15000800000000F2
:1000F0000000000000000000000000000000000000
:0C01000000000000000000005FF808F1A3
:10010C0010B5054C237833B9044B13B10448AFF345
:10011C0000800123237010BD34000020000000007B
:10012C001C2C000808B5034B1BB103490348AFF363
:10013C00008008BD00000000380000201C2C0008C6
:10014C0080B483B000AF7860074B1B687A6892FB71
:10015C00F3F3064A1360064B00221A6000BF0C37FB
:10016C00BD4680BC704700BF00000020500000203E
:10017C005400002080B483B000AF7860074B1B683C
:10018C007A6892FBF3F3064A1360064B00221A605E
:10019C0000BF0C37BD4680BC704700BF000000207C
:1001AC00580000205C00002080B483B000AF786061
:1001BC00074B1B687A6892FBF3F3064A1360064BF5
:1001CC0000221A6000BF0C37BD4680BC704700BFD0
:1001DC0000000020600000206400002080B400AF0C
:1001EC00194B1B68002B0BDD174B1B68013B164A88
:1001FC001360154B1B68002B02D1144B01221A60A3
:10020C00134B1B68002B0BDD114B1B68013B104A79
:10021C0013600F4B1B68002B02D10E4B01221A608E
:10022C000D4B1B68002B0BDD0B4B1B68013B0A4A6B
:10023C001360094B1B68002B02D1084B01221A607A
:10024C0000BFBD4680BC7047500000205400002009
:10025C00580000205C00002060000020640000209A
:10026C0080B582B000AF78607B68002B22D1002271
:10027C000121BD4801F0A2FC00220221BA4801F084
:10028C009DFC00220421B84801F098FC00220821B2
:10029C00B54801F093FC00221021B34801F08EFC0C
:1002AC0000222021B04801F089FC01224021AE48F7
:1002BC0001F084FC7B68012B22D101220121AA4888
:1002CC0001F07CFC00220221A74801F077FC0022FF
:1002DC000421A54801F072FC01220821A24801F07A
:1002EC006DFC01221021A04801F068FC01222021A4
:1002FC009D4801F063FC012240219B4801F05EFC0B
:10030C007B68022B22D100220121974801F056FC78
:10031C0000220221944801F051FC01220421924850
:10032C0001F04CFC002208218F4801F047FC002210
:10033C0010218D4801F042FC012220218A4801F055
:10034C003DFC00224021884801F038FC7B68032BDF
:10035C0022D100220121844801F030FC002202212C
:10036C00814801F02BFC002204217F4801F026FC7F
:10037C00002208217C4801F021FC012210217A483E
:10038C0001F01CFC01222021774801F017FC00220F
:10039C004021754801F012FC7B68042B22D101220C
:1003AC000121714801F00AFC002202216E4801F083
:1003BC0005FC002204216C4801F000FC01220821FC
:1003CC00694801F0FBFB01221021674801F0F6FBA4
:1003DC0000222021644801F0F1FB002240216248F8
:1003EC0001F0ECFB7B68052B22D1002201215E4839
:1003FC0001F0E4FB012202215B4801F0DFFB00224B
:10040C000421594801F0DAFB00220821564801F07A
:10041C00D5FB01221021544801F0D0FB00222021F1
:10042C00514801F0CBFB002240214F4801F0C6FBA4
:10043C007B68062B22D1002201214B4801F0BEFB28
:10044C0001220221484801F0B9FB00220421464850
:10045C0001F0B4FB00220821434801F0AFFB00225D
:10046C001021414801F0AAFB002220213E4801F056
:10047C00A5FB002240213C4801F0A0FB7B68072B28
:10048C0022D100220121384801F098FB00220221E0
:10049C00354801F093FB00220421334801F08EFB18
:1004AC0001220821304801F089FB012210212E483D
:1004BC0001F084FB012220212B4801F07FFB01225B
:1004CC004021294801F07AFB7B68082B22D10022BD
:1004DC000121254801F072FB00220221224801F083
:1004EC006DFB00220421204801F068FB002208214A
:1004FC001D4801F063FB002210211B4801F05EFB3C
:10050C0000222021184801F059FB002240211648F6
:10051C0001F054FB7B68092B22D1002201211248E7
:10052C0001F04CFB002202210F4801F047FB002296
:10053C0004210D4801F042FB002208210A4801F079
:10054C003DFB01221021084801F038FB002220213C
:10055C00054801F033FB00224021034801F02EFB3B
:10056C0000BF0837BD4680BD000C014080B582B08D
:10057C0000AF78607B68022B35D07B68022B43DCA4
:10058C007B68002B03D07B68012B1CD03CE0294BF3
:10059C001B681846FFF764FE00224021264801F034
:1005AC000DFB01228021244801F008FB01224FF4AD
:1005BC008071214801F002FB01224FF400711E48AA
:1005CC0001F0FCFA32E01B4B5B681846FFF748FE63
:1005DC0001224021184801F0F1FA0022802116482E
:1005EC0001F0ECFA22E0134B9B681846FFF738FE3B
:1005FC0001228021104801F0E1FA00224FF48071B1
:10060C000D4801F0DBFA11E00A4BDB681846FFF7E6
:10061C0027FE01224FF48071074801F0CFFA002227
:10062C004FF40071044801F0C9FA00BF00BF08374D
:10063C00BD4680BD040000200008014080B400AF1E
:10064C001A4B1B681A4A82FB03129210DB17D31A3F
:10065C00184A1360154B1968154B83FB01239A102C
:10066C00CB17D21A13469B0013445B00CA1A114BCA
:10067C005A60114B1B680E4A82FB03129210DB1757
:10068C00D31A0C4A93600C4B1968094B83FB01235A
:10069C009A10CB17D21A13469B0013445B00CA1A4C
:1006AC00044BDA6000BFBD4680BC704714000020CC
:1006BC0067666666040000201800002080B582B0D2
:1006CC0000AF78607B68072B00F2B88401A252F867
:1006DC0023F000BF0107000827080008590900088B
:1006EC007D0A0008AD0B0008D10C0008010E0008B3
:1006FC00250F000800220421914801F05FFA012225
:10070C0008218F4801F05AFA01224FF480618C487D
:10071C0001F054FA01224FF40061894801F04EFABD
:10072C0001224FF48051864801F048FA01224FF41F
:10073C000051834801F042FA01224FF48041804875
:10074C0001F03CFA01224FF400417D4801F036FAE9
:10075C007C4B1B7803F00103DBB21A464FF480711B
:10076C00794801F02BFA774B1B785B08DBB203F06E
:10077C000103DBB21A464FF40071734801F01EFA04
:10078C00704B1B789B08DBB203F00103DBB21A46FB
:10079C004FF480616C4801F011FA6A4B1B78DB084E
:1007AC00DBB203F00103DBB21A464FF4006166487A
:1007BC0001F004FA634B1B781B09DBB203F0010355
:1007CC00DBB21A464FF480515F4801F0F7F95D4BEC
:1007DC001B785B09DBB203F00103DBB21A464FF462
:1007EC000051594801F0EAF9564B1B789B09DBB2D2
:1007FC0003F00103DBB21A464FF48041524801F07A
:10080C00DDF9504B1B78DB09DBB21A464FF4004183
:10081C004D4801F0D3F900F012BC012204214848E4
:10082C0001F0CCF900220821454801F0C7F901225A
:10083C004FF48061424801F0C1F901224FF400618C
:10084C003F4801F0BBF901224FF480513C4801F0C4
:10085C00B5F901224FF40051394801F0AFF90122EA
:10086C004FF48041364801F0A9F901224FF40041C0
:10087C00334801F0A3F9334B5B7803F00103DBB28F
:10088C001A464FF48071304801F098F92D4B5B7883
:10089C005B08DBB203F00103DBB21A464FF40071C4
:1008AC00294801F08BF9274B5B789B08DBB203F0EE
:1008BC000103DBB21A464FF48061234801F07EF944
:1008CC00204B5B78DB08DBB203F00103DBB21A468A
:1008DC004FF400611C4801F071F91A4B5B781B094D
:1008EC00DBB203F00103DBB21A464FF48051164819
:1008FC0001F064F9134B5B785B09DBB203F0010385
:10090C00DBB21A464FF400510F4801F057F90D4B6A
:10091C005B789B09DBB203F00103DBB21A464FF4A0
:10092C008041094801F04AF9064B5B78DB09DBB2E0
:10093C001A464FF40041044801F040F97FE300BF30
:10094C000008014020000020000C0140012204217D
:10095C00904801F033F9012208218E4801F02EF95C
:10096C0000224FF480618B4801F028F901224FF4EA
:10097C000061884801F022F901224FF4805185482A
:10098C0001F01CF901224FF40051824801F016F9D4
:10099C0001224FF480417F4801F010F901224FF4FD
:1009AC0000417C4801F00AF97B4B9B7803F0010372
:1009BC00DBB21A464FF48071784801F0FFF8764BA1
:1009CC009B785B08DBB203F00103DBB21A464FF4F1
:1009DC000071724801F0F2F86F4B9B789B08DBB208
:1009EC0003F00103DBB21A464FF480616B4801F04F
:1009FC00E5F8694B9B78DB08DBB203F00103DBB253
:100A0C001A464FF40061654801F0D8F8624B9B78A8
:100A1C001B09DBB203F00103DBB21A464FF4805121
:100A2C005E4801F0CBF85C4B9B785B09DBB203F0C2
:100A3C000103DBB21A464FF40051584801F0BEF8DE
:100A4C00554B9B789B09DBB203F00103DBB21A46D2
:100A5C004FF48041514801F0B1F84F4B9B78DB09C2
:100A6C00DBB21A464FF400414C4801F0A7F8E6E21D
:100A7C0001220421474801F0A1F801220821454830
:100A8C0001F09CF801224FF48061424801F096F885
:100A9C0000224FF400613F4801F090F801224FF41E
:100AAC0080513C4801F08AF801224FF4005139483A
:100ABC0001F084F801224FF48041364801F07EF8B1
:100ACC0001224FF40041334801F078F8324BDB78C7
:100ADC0003F00103DBB21A464FF480712F4801F08A
:100AEC006DF82D4BDB785B08DBB203F00103DBB256
:100AFC001A464FF40071294801F060F8264BDB7858
:100B0C009B08DBB203F00103DBB21A464FF48061A1
:100B1C00224801F053F8204BDB78DB08DBB203F002
:100B2C000103DBB21A464FF400611C4801F046F891
:100B3C00194BDB781B09DBB203F00103DBB21A465D
:100B4C004FF48051154801F039F8134BDB785B09F1
:100B5C00DBB203F00103DBB21A464FF400510F482D
:100B6C0001F02CF80C4BDB789B09DBB203F0010392
:100B7C00DBB21A464FF48041084801F01FF8064BCF
:100B8C00DB78DB09DBB21A464FF40041034801F075
:100B9C0015F854E20008014020000020000C014030
:100BAC0001220421904801F009F8012208218E4805
:100BBC0001F004F801224FF480618B4800F0FEFF35
:100BCC0001224FF40061884800F0F8FF00224FF436
:100BDC008051854800F0F2FF01224FF40051824809
:100BEC0000F0ECFF01224FF480417F4800F0E6FF5B
:100BFC0001224FF400417C4800F0E0FF7B4B1B7955
:100C0C0003F00103DBB21A464FF48071784800F010
:100C1C00D5FF764B1B795B08DBB203F00103DBB22B
:100C2C001A464FF40071724800F0C8FF6F4B1B79E5
:100C3C009B08DBB203F00103DBB21A464FF4806170
:100C4C006B4800F0BBFF694B1B79DB08DBB203F090
:100C5C000103DBB21A464FF40061654800F0AEFFA9
:100C6C00624B1B791B09DBB203F00103DBB21A46A2
:100C7C004FF480515E4800F0A1FF5C4B1B795B097F
:100C8C00DBB203F00103DBB21A464FF400515848B3
:100C9C0000F094FF554B1B799B09DBB203F0010369
:100CAC00DBB21A464FF48041514800F087FF4F4B9E
:100CBC001B79DB09DBB21A464FF400414C4800F0BB
:100CCC007DFFBCE101220421474800F077FF01229F
:100CDC000821454800F072FF01224FF48061424820
:100CEC0000F06CFF01224FF400613F4800F066FFFA
:100CFC0001224FF480513C4800F060FF00224FF479
:100D0C000051394800F05AFF01224FF48041364817
:100D1C0000F054FF01224FF40041334800F04EFF25
:100D2C00324B5B7903F00103DBB21A464FF480714E
:100D3C002F4800F043FF2D4B5B795B08DBB203F0CF
:100D4C000103DBB21A464FF40071294800F036FF5C
:100D5C00264B5B799B08DBB203F00103DBB21A462E
:100D6C004FF48061224800F029FF204B5B79DB08AF
:100D7C00DBB203F00103DBB21A464FF400611C48EE
:100D8C0000F01CFF194B5B791B09DBB203F001036C
:100D9C00DBB21A464FF48051154800F00FFF134B8D
:100DAC005B795B09DBB203F00103DBB21A464FF44B
:100DBC0000510F4800F002FF0C4B5B799B09DBB232
:100DCC0003F00103DBB21A464FF48041084800F0EF
:100DDC00F5FE064B5B79DB09DBB21A464FF400419A
:100DEC00034800F0EBFE2AE100080140200000203F
:100DFC00000C014001220421934800F0DFFE012287
:100E0C000821914800F0DAFE01224FF480618E48EF
:100E1C0000F0D4FE01224FF400618B4800F0CEFEAE
:100E2C0001224FF48051884800F0C8FE01224FF493
:100E3C000051854800F0C2FE00224FF480418248E8
:100E4C0000F0BCFE01224FF400417F4800F0B6FEDA
:100E5C007E4B9B7903F00103DBB21A464FF4807191
:100E6C007B4800F0ABFE794B9B795B08DBB203F05F
:100E7C000103DBB21A464FF40071754800F09EFE78
:100E8C00724B9B799B08DBB203F00103DBB21A4671
:100E9C004FF480616E4800F091FE6C4B9B79DB083F
:100EAC00DBB203F00103DBB21A464FF40061684871
:100EBC0000F084FE654B9B791B09DBB203F0010348
:100ECC00DBB21A464FF48051614800F077FE5F4B5D
:100EDC009B795B09DBB203F00103DBB21A464FF4DA
:100EEC0000515B4800F06AFE584B9B799B09DBB2C2
:100EFC0003F00103DBB21A464FF48041544800F072
:100F0C005DFE524B9B79DB09DBB21A464FF4004174
:100F1C004F4800F053FE92E0012204214A4800F0B1
:100F2C004DFE01220821484800F048FE01224FF4F2
:100F3C008061454800F042FE01224FF400614248B6
:100F4C0000F03CFE01224FF480513F4800F036FE89
:100F5C0001224FF400513C4800F030FE01224FF4C6
:100F6C008041394800F02AFE00224FF400413648F7
:100F7C0000F024FE354BDB7903F00103DBB21A469B
:100F8C004FF48071324800F019FE304BDB795B086E
:100F9C00DBB203F00103DBB21A464FF400712C48AC
:100FAC0000F00CFE294BDB799B08DBB203F001034C
:100FBC00DBB21A464FF48061254800F0FFFD234B4D
:100FCC00DB79DB08DBB203F00103DBB21A464FF42A
:100FDC0000611F4800F0F2FD1C4BDB791B09DBB2F2
:100FEC0003F00103DBB21A464FF48051184800F0AD
:100FFC00E5FD164BDB795B09DBB203F00103DBB2D9
:10100C001A464FF40051124800F0D8FD0F4BDB7913
:10101C009B09DBB203F00103DBB21A464FF48041AB
:10102C000B4800F0CBFD094BDB79DB09DBB21A4630
:10103C004FF40041064800F0C1FD00E000BF00BFC6
:10104C000837BD4680BD00BF0008014020000020CD
:10105C00000C014080B400AF0D4BFF221A700C4BFA
:10106C00FF225A700A4BFF229A70094BFF22DA704A
:10107C00074BFF221A71064BFF225A71044BFF22B9
:10108C009A71034BFF22DA7100BFBD4680BC7047DA
:10109C002000002080B483B000AF03463960FB71A0
:1010AC00FB79412B5FD13B685A4203F0070302F0F6
:1010BC00070258BF53422F4AFF21D1543B680133DA
:1010CC005A4203F0070302F0070258BF5342294A61
:1010DC000121D1543B6802335A4203F0070302F05A
:1010EC00070258BF5342234A0021D1543B680333B3
:1010FC005A4203F0070302F0070258BF53421D4A3D
:10110C00CC21D1543B6804335A4203F0070302F05C
:10111C00070258BF5342174ACC21D1543B680533C0
:10112C005A4203F0070302F0070258BF5342114A18
:10113C000021D1543B6806335A4203F0070302F0F6
:10114C00070258BF53420B4A0121D1543B68073365
:10115C005A4203F0070302F0070258BF5342054AF4
:10116C00FF21D15400E000BF00BF0C37BD4680BC4E
:10117C00704700BF2000002080B500AF00F032FAAD
:10118C0000F09EF800F024F900F0D6F8414801F088
:10119C007FF9414B01221A60404B01221A60404BEF
:1011AC0001221A603E4B1B68012B10D10A20FEF75E
:1011BC00FBFF3C4B1B6819464120FFF76BFF3A4B7A
:1011CC001B685A1C38490A601846FFF777FA334BEC
:1011DC001B68012B27D14FF47A70FEF7CBFF334BF2
:1011EC001B680133314A1360304B1B683B2B07DD06
:1011FC002E4B00221A602E4B1B6801332C4A1360B5
:10120C002B4B1B683B2B07DD294B00221A60294B0B
:10121C001B680133274A1360264B1B68172B02DD12
:10122C00244B00221A601C4B1B68012B15D14FF468
:10123C00FA70FEF785FF20211F4800F0D7FC102123
:10124C001D4800F0D3FCFFF7F9F91C4B1B685A1C26
:10125C001A490A601846FFF789F9184B1B68042BCA
:10126C0002D1164B00221A600F4B1B68082B99D128
:10127C000D4B00221A600B4B1B680133094A13609B
:10128C00FFF7E8FE074B1B68082B8BD1054B0022A0
:10129C001A6087E768000020540000205C000020E2
:1012AC0064000020B8000020B40000201C000020C6
:1012BC00180000201400002000080140B00000209D
:1012CC0080B590B000AF07F1180328220021184612
:1012DC0001F096FC3B1D00221A605A609A60DA609D
:1012EC001A610223BB610123BB621023FB62002342
:1012FC007B6307F11803184600F092FC0346002BA1
:10130C0001D000F0C5F80F237B600023BB600023E5
:10131C00FB6000233B6100237B613B1D00211846D1
:10132C0000F000FF0346002B01D000F0B1F800BF25
:10133C004037BD4680BD000080B586B000AF07F1D8
:10134C00080300221A605A609A60DA603B46002259
:10135C001A605A601D4B4FF080421A601B4B41F6CD
:10136C003F725A60194B00229A60184B0A22DA60BD
:10137C00164B00221A61154B00229A61134801F09A
:10138C0037F80346002B01D000F082F84FF480535D
:10139C00BB6007F1080319460C4801F0CDF9034670
:1013AC00002B01D000F074F800233B6000237B601D
:1013BC003B461946054801F095FB0346002B01D02E
:1013CC0000F066F800BF1837BD4680BD68000020ED
:1013DC0080B586B000AF07F1080300221A605A608E
:1013EC009A60DA60224B9B69214A43F004039361B3
:1013FC001F4B9B6903F004037B607B681C4B9B6950
:10140C001B4A43F008039361194B9B6903F00803D3
:10141C003B603B6800224FF6FC71164800F0CEFB97
:10142C0000224FF67F71144800F0C8FB4FF6FC7396
:10143C00BB600123FB6000233B6102237B6107F14E
:10144C00080319460B4800F03DFA4FF67F73BB605A
:10145C000123FB6000233B6102237B6107F108033E
:10146C001946054800F02EFA00BF1837BD4680BD5E
:10147C000010024000080140000C014080B582B011
:10148C0000AF7860FEF7AAFE00BF0837BD4680BDEE
:10149C0080B400AF72B600BFFEE7000080B483B02A
:1014AC0000AF0E4B9B690D4A43F0010393610B4B4C
:1014BC009B6903F001037B607B68084BDB69074A7F
:1014CC0043F08053D361054BDB6903F080533B60E1
:1014DC003B6800BF0C37BD4680BC70470010024013
:1014EC0080B584B000AF78607B681B68B3F1804F27
:1014FC0013D10C4BDB690B4A43F00103D361094B4D
:10150C00DB6903F00103FB60FB68002200211C2057
:10151C0000F0A1F91C2000F0BAF900BF1037BD464D
:10152C0080BD00BF0010024080B400AFFEE780B465
:10153C0000AFFEE780B400AFFEE780B400AFFEE77B
:10154C0080B400AFFEE780B400AF00BFBD4680BCE6
:10155C00704780B400AF00BFBD4680BC704780B4FC
:10156C0000AF00BFBD4680BC704780B500AF00F037
:10157C007FF800BF80BD000080B500AF024800F0CE
:10158C00D3FF00BF80BD00BF6800002080B400AF57
:10159C0000BFBD4680BC70470C480D490D4A002366
:1015AC0002E0D458C4500433C4188C42F9D30A4A0C
:1015BC000A4C002301E013600432A242FBD3FFF774
:1015CC00E5FF01F0F9FAFFF7D7FD704700000020A6
:1015DC00340000205C2C000834000020C0000020E7
:1015EC00FEE7000080B500AF084B1B68074A43F0CC
:1015FC0010031360032000F023F90F2000F008F80B
:10160C00FFF74CFF0023184680BD00BF00200240AE
:10161C0080B582B000AF7860124B1A68124B1B7801
:10162C0019464FF47A73B3FBF1F3B2FBF3F318469C
:10163C0000F03BF90346002B01D001230EE07B6840
:10164C000F2B0AD8002279684FF0FF3000F003F915
:10165C00064A7B681360002300E001231846083714
:10166C00BD4680BD28000020300000202C0000204A
:10167C0080B400AF054B1B781A46054B1B6813440E
:10168C00034A136000BFBD4680BC70473000002089
:10169C00BC00002080B400AF024B1B681846BD464E
:1016AC0080BC7047BC00002080B485B000AF78606F
:1016BC007B6803F00703FB600C4BDB68BB60BA680C
:1016CC004FF6FF031340BB60FB681A02BB68134361
:1016DC0043F0BF6343F40033BB60044ABB68D36080
:1016EC0000BF1437BD4680BC704700BF00ED00E062
:1016FC0080B400AF044BDB681B0A03F007031846E9
:10170C00BD4680BC704700BF00ED00E080B483B0E4
:10171C0000AF0346FB7197F90730002B0BDBFB790D
:10172C0003F01F02064997F907305B09012000FA04
:10173C0002F241F8232000BF0C37BD4680BC704735
:10174C0000E100E080B483B000AF03463960FB7168
:10175C0097F90730002B0ADB3B68DAB20C4997F992
:10176C0007301201D2B20B4483F800230AE03B6825
:10177C00DAB20849FB7903F00F03043B1201D2B231
:10178C000B441A7600BF0C37BD4680BC704700BFB7
:10179C0000E100E000ED00E080B489B000AFF8603B
:1017AC00B9607A60FB6803F00703FB61FB69C3F166
:1017BC000703042B28BF0423BB61FB690433062BEE
:1017CC0002D9FB69033B00E000237B614FF0FF3241
:1017DC00BB6902FA03F3DA43BB681A407B699A408F
:1017EC004FF0FF317B6901FA03F3D9437B680B405F
:1017FC00134318462437BD4680BC704780B582B071
:10180C0000AF78607B68013BB3F1807F01D301238B
:10181C000FE00A4A7B68013B53600F214FF0FF3009
:10182C00FFF790FF054B00229A60044B07221A60C9
:10183C00002318460837BD4680BD00BF10E000E00D
:10184C0080B582B000AF78607868FFF72DFF00BFDD
:10185C000837BD4680BD80B586B000AF0346B96081
:10186C007A60FB7300237B61FFF742FF78617A6833
:10187C00B9687869FFF790FF024697F90F30114667
:10188C001846FFF75FFF00BF1837BD4680BD80B517
:10189C0082B000AF0346FB7197F907301846FFF78B
:1018AC0035FF00BF0837BD4680BD80B582B000AFA4
:1018BC0078607868FFF7A2FF034618460837BD46E4
:1018CC0080BD000080B48BB000AF7860396000231D
:1018DC007B6200233B6261E101227B6A02FA03F323
:1018EC00FB613B681B68FA691340BB61BA69FB6911
:1018FC009A4240F050813B685B68974A93425ED0B5
:10190C00954A934275D8954A934258D0934A93423C
:10191C006FD8934A934252D0914A934269D8914AD4
:10192C0093424CD08F4A934263D88F4A934246D00D
:10193C008D4A93425DD8122B2AD8122B59D801A26A
:10194C0052F823F0CB190008A5190008B7190008A4
:10195C00F9190008FF190008FF190008FF19000801
:10196C00FF190008FF190008FF190008FF190008EB
:10197C00FF190008FF190008FF190008FF190008DB
:10198C00FF190008FF190008AD190008C11900085B
:10199C00764A934213D02CE03B68DB683B6229E02B
:1019AC003B68DB6804333B6224E03B68DB6808334C
:1019BC003B621FE03B68DB680C333B621AE03B6820
:1019CC009B68002B02D104233B6213E03B689B68AD
:1019DC00012B05D108233B627B68FA691A6109E087
:1019EC0008233B627B68FA695A6103E000233B627F
:1019FC0000E000BFBB69FF2B01D87B6801E07B686E
:101A0C0004337B61BB69FF2B02D87B6A9B0002E02D
:101A1C007B6A083B9B003B617B691A680F213B6921
:101A2C0001FA03F3DB431A40396A3B6901FA03F309
:101A3C001A437B691A603B685B6803F08053002B88
:101A4C0000F0A9804A4B9B69494A43F0010393611A
:101A5C00474B9B6903F00103BB60BB68454A7B6A3B
:101A6C009B08023352F82330FB607B6A03F00303BC
:101A7C009B000F2202FA03F3DB43FA681340FB606E
:101A8C007B683D4A93420DD07B683C4A934207D019
:101A9C007B683B4A934201D1022304E0032302E01A
:101AAC00012300E000237A6A02F0030292009340C3
:101ABC00FA681343FB602F497B6A9B080233FA6870
:101ACC0041F823203B685B6803F48033002B06D07D
:101ADC002C4B1A682B49BB6913430B6006E0294B4E
:101AEC001A68BB69DB43274913400B603B685B6892
:101AFC0003F40033002B06D0224B5A682149BB69F2
:101B0C0013434B6006E01F4B5A68BB69DB431D490E
:101B1C0013404B603B685B6803F48013002B06D0CA
:101B2C00184B9A681749BB6913438B6006E0154B39
:101B3C009A68BB69DB43134913408B603B685B6855
:101B4C0003F40013002B1FD00E4BDA680D49BB6950
:101B5C001343CB601FE000BF0000321000003110B7
:101B6C0000002210000021100000121000001110C3
:101B7C00001002400000014000080140000C014030
:101B8C0000100140000401400B4BDA68BB69DB43D9
:101B9C0009491340CB607B6A01337B623B681A684E
:101BAC007B6A22FA03F3002B7FF496AE00BF00BFD2
:101BBC002C37BD4680BC70470004014080B483B014
:101BCC0000AF78600B467B8013467B707B78002BD4
:101BDC0003D07A887B681A6103E07B881A047B68DF
:101BEC001A6100BF0C37BD4680BC704780B485B00D
:101BFC0000AF78600B467B807B68DB68FB607A8883
:101C0C00FB6813401A04FB68D9437B880B401A43CA
:101C1C007B681A6100BF1437BD4680BC704700005A
:101C2C0080B586B000AF78607B68002B01D10123B2
:101C3C0072E27B681B6803F00103002B00F08780C5
:101C4C00924B5B6803F00C03042B0CD08F4B5B683E
:101C5C0003F00C03082B12D18C4B5B6803F480331C
:101C6C00B3F5803F0BD1894B1B6803F40033002B79
:101C7C006CD07B685B68002B68D101234CE27B68DD
:101C8C005B68B3F5803F06D1804B1B687F4A43F4F9
:101C9C00803313602EE07B685B68002B0CD17B4B90
:101CAC001B687A4A23F480331360784B1B68774A9D
:101CBC0023F4802313601DE07B685B68B3F5A02FD1
:101CCC000CD1724B1B68714A43F4802313606F4B29
:101CDC001B686E4A43F4803313600BE06B4B1B683C
:101CEC006A4A23F480331360684B1B68674A23F4F9
:101CFC00802313607B685B68002B13D0FFF7CAFC52
:101D0C00386108E0FFF7C6FC02463B69D31A642B26
:101D1C0001D9032300E25D4B1B6803F40033002B55
:101D2C00F0D014E0FFF7B6FC386108E0FFF7B2FC26
:101D3C0002463B69D31A642B01D90323ECE1534BC4
:101D4C001B6803F40033002BF0D100E000BF7B686C
:101D5C001B6803F00203002B63D04C4B5B6803F051
:101D6C000C03002B0BD0494B5B6803F00C03082BC6
:101D7C001CD1464B5B6803F48033002B16D1434BCC
:101D8C001B6803F00203002B05D07B681B69012B39
:101D9C0001D00123C0E13D4B1B6823F0F8027B68A6
:101DAC005B69DB00394913430B603AE07B681B69C4
:101DBC00002B20D0364B01221A60FFF76BFC3861E8
:101DCC0008E0FFF767FC02463B69D31A022B01D9E6
:101DDC000323A1E12D4B1B6803F00203002BF0D071
:101DEC002A4B1B6823F0F8027B685B69DB002749F0
:101DFC0013430B6015E0264B00221A60FFF74AFCD8
:101E0C00386108E0FFF746FC02463B69D31A022B07
:101E1C0001D9032380E11D4B1B6803F00203002B47
:101E2C00F0D17B681B6803F00803002B3AD07B6869
:101E3C009B69002B19D0174B01221A60FFF72AFC63
:101E4C00386108E0FFF726FC02463B69D31A022BE7
:101E5C0001D9032360E10D4B5B6A03F00203002BF5
:101E6C00F0D0012000F0A6FA1CE00A4B00221A6008
:101E7C00FFF710FC38610FE0FFF70CFC02463B69E2
:101E8C00D31A022B08D9032346E100BF00100240ED
:101E9C000000424280044242924B5B6A03F0020310
:101EAC00002BE9D17B681B6803F00403002B00F0C6
:101EBC00A6800023FB758B4BDB6903F08053002B52
:101ECC000DD1884BDB69874A43F08053D361854B36
:101EDC00DB6903F08053BB60BB680123FB75824B4D
:101EEC001B6803F48073002B18D17F4B1B687E4A50
:101EFC0043F480731360FFF7CDFB386108E0FFF704
:101F0C00C9FB02463B69D31A642B01D9032303E1B5
:101F1C00754B1B6803F48073002BF0D07B68DB6877
:101F2C00012B06D16F4B1B6A6E4A43F001031362FF
:101F3C002DE07B68DB68002B0CD16A4B1B6A694A6D
:101F4C0023F001031362674B1B6A664A23F00403F8
:101F5C0013621CE07B68DB68052B0CD1614B1B6AA0
:101F6C00604A43F0040313625E4B1B6A5D4A43F004
:101F7C00010313620BE05B4B1B6A5A4A23F001030B
:101F8C001362584B1B6A574A23F0040313627B6895
:101F9C00DB68002B15D0FFF77DFB38610AE0FFF7FB
:101FAC0079FB02463B69D31A41F28832934201D93C
:101FBC000323B1E04B4B1B6A03F00203002BEED062
:101FCC0014E0FFF767FB38610AE0FFF763FB02469A
:101FDC003B69D31A41F28832934201D903239BE027
:101FEC00404B1B6A03F00203002BEED1FB7D012B4F
:101FFC0005D13C4BDB693B4A23F08053D3617B68B2
:10200C00DB69002B00F08780364B5B6803F00C0318
:10201C00082B61D07B68DB69022B46D1334B002245
:10202C001A60FFF737FB386108E0FFF733FB024615
:10203C003B69D31A022B01D903236DE0294B1B6892
:10204C0003F00073002BF0D17B681B6AB3F5803F63
:10205C0008D1244B5B6823F400327B689B682149D0
:10206C0013434B601F4B5B6823F474127B68196A33
:10207C007B685B6A0B431B4913434B601B4B012270
:10208C001A60FFF707FB386108E0FFF703FB024615
:10209C003B69D31A022B01D903233DE0114B1B687A
:1020AC0003F00073002BF0D035E0104B00221A60C7
:1020BC00FFF7F0FA386108E0FFF7ECFA02463B69EB
:1020CC00D31A022B01D9032326E0064B1B6803F01D
:1020DC000073002BF0D11EE07B68DB69012B07D16C
:1020EC00012319E0001002400070004060004242E1
:1020FC000B4B5B68FB60FB6803F480327B681B6AEC
:10210C009A4206D1FB6803F470127B685B6A9A42B0
:10211C0001D0012300E0002318461837BD4680BDCE
:10212C000010024080B584B000AF786039607B68E5
:10213C00002B01D10123D0E06A4B1B6803F007038D
:10214C003A689A4210D9674B1B6823F0070265491D
:10215C003B6813430B60634B1B6803F007033A683F
:10216C009A4201D00123B8E07B681B6803F002039C
:10217C00002B20D07B681B6803F00403002B05D0D8
:10218C00594B5B68584A43F4E06353607B681B68A7
:10219C0003F00803002B05D0534B5B68524A43F401
:1021AC0060535360504B5B6823F0F0027B689B6874
:1021BC004D4913434B607B681B6803F00103002BF4
:1021CC0040D07B685B68012B07D1474B1B6803F43D
:1021DC000033002B15D101237FE07B685B68022B59
:1021EC0007D1414B1B6803F00073002B09D101236D
:1021FC0073E03D4B1B6803F00203002B01D101235C
:10220C006BE0394B5B6823F003027B685B683649F3
:10221C0013434B60FFF73EFAF8600AE0FFF73AFA17
:10222C000246FB68D31A41F28832934201D9032348
:10223C0053E02D4B5B6803F00C027B685B689B00E2
:10224C009A42EBD1274B1B6803F007033A689A427A
:10225C0010D2244B1B6823F0070222493B6813431E
:10226C000B60204B1B6803F007033A689A4201D0BD
:10227C00012332E07B681B6803F00403002B08D0B9
:10228C00194B5B6823F4E0627B68DB6816491343E7
:10229C004B607B681B6803F00803002B09D0124BC2
:1022AC005B6823F460527B681B69DB000E491343A7
:1022BC004B6000F021F802460B4B5B681B0903F0E6
:1022CC000F030A49CB5C22FA03F3094A1360094B4A
:1022DC001B681846FFF79CF9002318461037BD46BB
:1022EC0080BD00BF0020024000100240442C0008BA
:1022FC00280000202C00002090B48AB000AF294B9D
:10230C003C1D0FCB84E80F0040F201233B800023DF
:10231C00FB610023BB6100237B6200237B610023F4
:10232C003B62214B5B68FB61FB6903F00C03042BE4
:10233C0002D0082B03D02BE01C4B3B622BE0FB693B
:10234C009B0C03F00F0328333B4413F8243C7B61B4
:10235C00FB6903F48033002B12D0134B5B685B0CCE
:10236C0003F0010328333B4413F8283CBB617B6921
:10237C000E4A03FB02F2BB69B2FBF3F37B6204E08F
:10238C007B690B4A02FB03F37B627B6A3B6202E0D4
:10239C00064B3B6200BF3B6A18462837BD4690BCD3
:1023AC00704700BF342C00080010024000127A0065
:1023BC0000093D0080B485B000AF78600A4B1B6803
:1023CC000A4AA2FB03235B0A7A6802FB03F3FB6055
:1023DC0000BFFB685A1EFA60002BF9D100BF00BF8A
:1023EC001437BD4680BC704728000020D34D6210C6
:1023FC0080B582B000AF78607B68002B01D10123DF
:10240C0041E07B6893F83D30DBB2002B06D17B6852
:10241C00002283F83C207868FFF762F87B68022280
:10242C0083F83D207B681A687B6804331946104694
:10243C0000F06AFA7B68012283F846207B6801224F
:10244C0083F83E207B68012283F83F207B680122C1
:10245C0083F840207B68012283F841207B680122AD
:10246C0083F842207B68012283F843207B68012299
:10247C0083F844207B68012283F845207B68012285
:10248C0083F83D20002318460837BD4680BD000068
:10249C0080B485B000AF78607B6893F83D30DBB2D8
:1024AC00012B01D0012335E07B68022283F83D200B
:1024BC007B681B68DA687B681B6842F00102DA6093
:1024CC007B681B68164A934209D07B681B68B3F182
:1024DC00804F04D07B681B68124A934211D17B68F1
:1024EC001B689B6803F00703FB60FB68062B10D08E
:1024FC007B681B681A687B681B6842F001021A60D3
:10250C0007E07B681B681A687B681B6842F0010255
:10251C001A60002318461437BD4680BC704700BFB4
:10252C00002C01400004004080B582B000AF786000
:10253C007B681B681B6903F00203022B22D17B68AA
:10254C001B68DB6803F00203022B1BD17B681B6842
:10255C006FF002021A617B6801221A777B681B6894
:10256C009B6903F00303002B03D0786800F0B1F9EA
:10257C0005E0786800F0A4F9786800F0B3F97B689E
:10258C0000221A777B681B681B6903F00403042B79
:10259C0022D17B681B68DB6803F00403042B1BD17E
:1025AC007B681B686FF004021A617B6802221A7741
:1025BC007B681B689B6903F44073002B03D078681D
:1025CC0000F087F905E0786800F07AF9786800F097
:1025DC0089F97B6800221A777B681B681B6903F0FA
:1025EC000803082B22D17B681B68DB6803F0080307
:1025FC00082B1BD17B681B686FF008021A617B6883
:10260C0004221A777B681B68DB6903F00303002B39
:10261C0003D0786800F05DF905E0786800F050F9B7
:10262C00786800F05FF97B6800221A777B681B687A
:10263C001B6903F01003102B22D17B681B68DB682D
:10264C0003F01003102B1BD17B681B686FF010027A
:10265C001A617B6808221A777B681B68DB6903F4B4
:10266C004073002B03D0786800F033F905E07868EC
:10267C0000F026F9786800F035F97B6800221A77AB
:10268C007B681B681B6903F00103012B0ED17B686F
:10269C001B68DB6803F00103012B07D17B681B6807
:1026AC006FF001021A617868FEF7E8FE7B681B6820
:1026BC001B6903F08003802B0ED17B681B68DB68E1
:1026CC0003F08003802B07D17B681B686FF08002BE
:1026DC001A61786800F067FA7B681B681B6903F065
:1026EC004003402B0ED17B681B68DB6803F0400372
:1026FC00402B07D17B681B686FF040021A61786829
:10270C0000F0F9F87B681B681B6903F02003202B91
:10271C000ED17B681B68DB6803F02003202B07D1EC
:10272C007B681B686FF020021A61786800F032FA3F
:10273C0000BF0837BD4680BD80B584B000AF78605F
:10274C0039607B6893F83C30012B01D10223B3E054
:10275C007B68012283F83C207B68022283F83D20B1
:10276C007B681B689B68FB60FB6823F07703FB604E
:10277C00FB6823F47F43FB607B681B68FA689A60F4
:10278C003B681B68B3F5005F3ED0B3F5005F00F209
:10279C008780B3F5805F00F08580B3F5805F7FD8CC
:1027AC00702B1AD0702B7BD8602B50D0602B77D825
:1027BC00502B3CD0502B73D8402B58D0402B6FD87B
:1027CC00302B64D0302B6BD8202B60D0202B67D8CB
:1027DC00002B5CD0102B5AD062E07B6818683B68E9
:1027EC0099683B685A683B68DB6800F05CF97B6869
:1027FC001B689B68FB60FB6843F07703FB607B689E
:10280C001B68FA689A604EE07B6818683B689968A8
:10281C003B685A683B68DB6800F045F97B681B68CD
:10282C009A687B681B6842F480429A603BE07B6844
:10283C0018683B6859683B68DB681A4600F0BCF8BE
:10284C007B681B685021184600F013F92BE07B685D
:10285C0018683B6859683B68DB681A4600F0DAF880
:10286C007B681B686021184600F003F91BE07B684D
:10287C0018683B6859683B68DB681A4600F09CF89E
:10288C007B681B684021184600F0F3F80BE07B686E
:10289C001A683B681B681946104600F0EAF802E01B
:1028AC0000BF00E000BF7B68012283F83D207B68FD
:1028BC00002283F83C20002318461037BD4680BD0B
:1028CC0080B483B000AF786000BF0C37BD4680BCCD
:1028DC00704780B483B000AF786000BF0C37BD4642
:1028EC0080BC704780B483B000AF786000BF0C37F9
:1028FC00BD4680BC704780B483B000AF786000BF29
:10290C000C37BD4680BC704780B485B000AF786092
:10291C0039607B681B68FB607B68254A934207D053
:10292C007B68B3F1804F03D07B68224A934208D175
:10293C00FB6823F07003FB603B685B68FA68134329
:10294C00FB607B681A4A934207D07B68B3F1804FD7
:10295C0003D07B68174A934208D1FB6823F4407379
:10296C00FB603B68DB68FA681343FB60FB6823F091
:10297C0080023B685B691343FB607B68FA681A60F2
:10298C003B689A687B68DA623B681A687B689A6273
:10299C007B68074A934203D13B681A697B681A63C8
:1029AC007B6801225A6100BF1437BD4680BC70475A
:1029BC00002C01400004004080B487B000AFF860E8
:1029CC00B9607A60FB681B6A7B61FB681B6A23F049
:1029DC000102FB681A62FB689B693B613B6923F04F
:1029EC00F0033B617B681B013A6913433B617B69D4
:1029FC0023F00A037B617A69BB6813437B61FB6834
:102A0C003A699A61FB687A691A6200BF1C37BD4645
:102A1C0080BC704780B487B000AFF860B9607A6052
:102A2C00FB681B6A23F01002FB681A62FB689B6947
:102A3C007B61FB681B6A3B617B6923F470437B61A0
:102A4C007B681B037A6913437B613B6923F0A0030A
:102A5C003B61BB681B013A6913433B61FB687A69B4
:102A6C009A61FB683A691A6200BF1C37BD4680BC8C
:102A7C00704780B485B000AF786039607B689B6824
:102A8C00FB60FB6823F07003FB603A68FB68134340
:102A9C0043F00703FB607B68FA689A6000BF143749
:102AAC00BD4680BC704780B487B000AFF860B96099
:102ABC007A603B60FB689B687B617B6923F47F4396
:102ACC007B613B681A027B681A43BB6813437A69C3
:102ADC0013437B61FB687A699A6000BF1C37BD4663
:102AEC0080BC704780B485B000AF786039607B687B
:102AFC0093F83C30012B01D1022341E07B68012289
:102B0C0083F83C207B68022283F83D207B681B689D
:102B1C005B68FB607B681B689B68BB60FB6823F091
:102B2C007003FB603B681B68FA681343FB607B68AF
:102B3C001B68FA685A607B681B68144A934209D078
:102B4C007B681B68B3F1804F04D07B681B68104A0C
:102B5C0093420CD1BB6823F08003BB603B685B687D
:102B6C00BA681343BB607B681B68BA689A607B6861
:102B7C00012283F83D207B68002283F83C2000234F
:102B8C0018461437BD4680BC704700BF002C01406E
:102B9C000004004080B483B000AF786000BF0C37F5
:102BAC00BD4680BC704780B483B000AF786000BF76
:102BBC000C37BD4680BC704770B500260C4D0D4CD3
:102BCC00641BA410A64209D100F022F800260A4D7D
:102BDC000A4C641BA410A64205D170BD55F8043BE9
:102BEC0098470136EEE755F8043B98470136F2E773
:102BFC00542C0008542C0008542C0008582C0008A5
:102C0C0003460244934200D1704703F8011BF9E7D5
:102C1C00F8B500BFF8BC08BC9E467047F8B500BFBD
:082C2C00F8BC08BC9E4670478D
:102C340002030405060708090A0B0C0D0E0F1010F9
:102C44000000000000000000010203040607080958
:042C54003101000842
:042C58000D01000862
:102C5C000A00000001000000020000000300000058
:102C6C00040000000F00000008000000320000000B
:102C7C0001020304050607080024F40010000000FC
:042C8C000100000043
:04000005080015A535
:00000001FF
