:020000040800F2
:1000000000280020B114000841140008471400081B
:100010004D14000853140008591400080000000093
:100020000000000000000000000000005F14000855
:100030006B14000800000000771400088314000807
:10004000F9140008F9140008F9140008F91400085C
:10005000F9140008F9140008F9140008F91400084C
:10006000F9140008F9140008F9140008F91400083C
:10007000F9140008F9140008F9140008F91400082C
:10008000F9140008F9140008F9140008F91400081C
:10009000F9140008F9140008F9140008F91400080C
:1000A000F9140008F9140008F9140008F9140008FC
:1000B00091140008F914000800000000F914000869
:1000C000F91400080000000000000000F914000806
:1000D00000000000F9140008F914000800000000F6
:1000E000F9140008F9140008F914000800000000D1
:1000F0000000000000000000000000000000000000
:0C01000000000000000000005FF808F1A3
:10010C0010B5054C237833B9044B13B10448AFF345
:10011C0000800123237010BD34000020000000007B
:10012C00282B000808B5034B1BB103490348AFF358
:10013C00008008BD0000000038000020282B0008BB
:10014C0080B483B000AF7860074B1B687A6892FB71
:10015C00F3F3064A1360064B00221A6000BF0C37FB
:10016C00BD4680BC704700BF00000020500000203E
:10017C005400002080B483B000AF7860074B1B683C
:10018C007A6892FBF3F3064A1360064B00221A605E
:10019C0000BF0C37BD4680BC704700BF000000207C
:1001AC00580000205C00002080B483B000AF786061
:1001BC00074B1B687A6892FBF3F3064A1360064BF5
:1001CC0000221A6000BF0C37BD4680BC704700BFD0
:1001DC0000000020600000206400002080B400AF0C
:1001EC00194B1B68002B0BDD174B1B68013B164A88
:1001FC001360154B1B68002B02D1144B01221A60A3
:10020C00134B1B68002B0BDD114B1B68013B104A79
:10021C0013600F4B1B68002B02D10E4B01221A608E
:10022C000D4B1B68002B0BDD0B4B1B68013B0A4A6B
:10023C001360094B1B68002B02D1084B01221A607A
:10024C0000BFBD4680BC7047500000205400002009
:10025C00580000205C00002060000020640000209A
:10026C0080B582B000AF78607B68002B22D1002271
:10027C000121BD4801F028FC00220221BA4801F0FE
:10028C0023FC00220421B84801F01EFC00220821A6
:10029C00B54801F019FC00221021B34801F014FC00
:1002AC0000222021B04801F00FFC01224021AE4871
:1002BC0001F00AFC7B68012B22D101220121AA4802
:1002CC0001F002FC00220221A74801F0FDFB0022F4
:1002DC000421A54801F0F8FB01220821A24801F0F5
:1002EC00F3FB01221021A04801F0EEFB012220219A
:1002FC009D4801F0E9FB012240219B4801F0E4FB01
:10030C007B68022B22D100220121974801F0DCFBF3
:10031C0000220221944801F0D7FB012204219248CB
:10032C0001F0D2FB002208218F4801F0CDFB002206
:10033C0010218D4801F0C8FB012220218A4801F0D0
:10034C00C3FB00224021884801F0BEFB7B68032BD5
:10035C0022D100220121844801F0B6FB00220221A7
:10036C00814801F0B1FB002204217F4801F0ACFB75
:10037C00002208217C4801F0A7FB012210217A48B9
:10038C0001F0A2FB01222021774801F09DFB002205
:10039C004021754801F098FB7B68042B22D1012287
:1003AC000121714801F090FB002202216E4801F0FE
:1003BC008BFB002204216C4801F086FB01220821F2
:1003CC00694801F081FB01221021674801F07CFB98
:1003DC0000222021644801F077FB00224021624872
:1003EC0001F072FB7B68052B22D1002201215E48B3
:1003FC0001F06AFB012202215B4801F065FB00223F
:10040C000421594801F060FB00220821564801F0F4
:10041C005BFB01221021544801F056FB00222021E5
:10042C00514801F051FB002240214F4801F04CFB98
:10043C007B68062B22D1002201214B4801F044FBA2
:10044C0001220221484801F03FFB002204214648CA
:10045C0001F03AFB00220821434801F035FB002251
:10046C001021414801F030FB002220213E4801F0D0
:10047C002BFB002240213C4801F026FB7B68072B1C
:10048C0022D100220121384801F01EFB002202215A
:10049C00354801F019FB00220421334801F014FB0C
:1004AC0001220821304801F00FFB012210212E48B7
:1004BC0001F00AFB012220212B4801F005FB01224F
:1004CC004021294801F000FB7B68082B22D1002237
:1004DC000121254801F0F8FA00220221224801F0FE
:1004EC00F3FA00220421204801F0EEFA0022082140
:1004FC001D4801F0E9FA002210211B4801F0E4FA32
:10050C0000222021184801F0DFFA00224021164871
:10051C0001F0DAFA7B68092B22D100220121124862
:10052C0001F0D2FA002202210F4801F0CDFA00228C
:10053C0004210D4801F0C8FA002208210A4801F0F4
:10054C00C3FA01221021084801F0BEFA0022202132
:10055C00054801F0B9FA00224021034801F0B4FA31
:10056C0000BF0837BD4680BD000C014080B582B08D
:10057C0000AF78607B68022B35D07B68022B43DCA4
:10058C007B68002B03D07B68012B1CD03CE0294BF3
:10059C001B681846FFF764FE00224021264801F034
:1005AC0093FA01228021244801F08EFA01224FF4A3
:1005BC008071214801F088FA01224FF400711E4825
:1005CC0001F082FA32E01B4B5B681846FFF748FEDD
:1005DC0001224021184801F077FA002280211648A8
:1005EC0001F072FA22E0134B9B681846FFF738FEB5
:1005FC0001228021104801F067FA00224FF480712B
:10060C000D4801F061FA11E00A4BDB681846FFF760
:10061C0027FE01224FF48071074801F055FA0022A1
:10062C004FF40071044801F04FFA00BF00BF0837C7
:10063C00BD4680BD040000200008014080B400AF1E
:10064C001A4B1B681A4A82FB03129210DB17D31A3F
:10065C00184A1360154B1968154B83FB01239A102C
:10066C00CB17D21A13469B0013445B00CA1A114BCA
:10067C005A60114B1B680E4A82FB03129210DB1757
:10068C00D31A0C4A93600C4B1968094B83FB01235A
:10069C009A10CB17D21A13469B0013445B00CA1A4C
:1006AC00044BDA6000BFBD4680BC704714000020CC
:1006BC0067666666040000201800002080B582B0D2
:1006CC0000AF78607B68072B00F2B88401A252F867
:1006DC0023F000BF0107000827080008590900088B
:1006EC007D0A0008AD0B0008D10C0008010E0008B3
:1006FC00250F000800220421914801F0E5F90122A0
:10070C0008218F4801F0E0F901224FF480618C48F8
:10071C0001F0DAF901224FF40061894801F0D4F9B3
:10072C0001224FF48051864801F0CEF901224FF49A
:10073C000051834801F0C8F901224FF480418048F0
:10074C0001F0C2F901224FF400417D4801F0BCF9DF
:10075C007C4B1B7803F00103DBB21A464FF480711B
:10076C00794801F0B1F9774B1B785B08DBB203F0E9
:10077C000103DBB21A464FF40071734801F0A4F97F
:10078C00704B1B789B08DBB203F00103DBB21A46FB
:10079C004FF480616C4801F097F96A4B1B78DB08C9
:1007AC00DBB203F00103DBB21A464FF4006166487A
:1007BC0001F08AF9634B1B781B09DBB203F00103D0
:1007CC00DBB21A464FF480515F4801F07DF95D4B66
:1007DC001B785B09DBB203F00103DBB21A464FF462
:1007EC000051594801F070F9564B1B789B09DBB24C
:1007FC0003F00103DBB21A464FF48041524801F07A
:10080C0063F9504B1B78DB09DBB21A464FF40041FD
:10081C004D4801F059F900F012BC0122042148485E
:10082C0001F052F900220821454801F04DF901224E
:10083C004FF48061424801F047F901224FF4006106
:10084C003F4801F041F901224FF480513C4801F03E
:10085C003BF901224FF40051394801F035F90122DE
:10086C004FF48041364801F02FF901224FF400413A
:10087C00334801F029F9334B5B7803F00103DBB209
:10088C001A464FF48071304801F01EF92D4B5B78FD
:10089C005B08DBB203F00103DBB21A464FF40071C4
:1008AC00294801F011F9274B5B789B08DBB203F068
:1008BC000103DBB21A464FF48061234801F004F9BE
:1008CC00204B5B78DB08DBB203F00103DBB21A468A
:1008DC004FF400611C4801F0F7F81A4B5B781B09C8
:1008EC00DBB203F00103DBB21A464FF48051164819
:1008FC0001F0EAF8134B5B785B09DBB203F0010300
:10090C00DBB21A464FF400510F4801F0DDF80D4BE5
:10091C005B789B09DBB203F00103DBB21A464FF4A0
:10092C008041094801F0D0F8064B5B78DB09DBB25B
:10093C001A464FF40041044801F0C6F87FE300BFAB
:10094C000008014020000020000C0140012204217D
:10095C00904801F0B9F8012208218E4801F0B4F852
:10096C0000224FF480618B4801F0AEF801224FF465
:10097C000061884801F0A8F801224FF480518548A5
:10098C0001F0A2F801224FF40051824801F09CF8CA
:10099C0001224FF480417F4801F096F801224FF478
:1009AC0000417C4801F090F87B4B9B7803F00103ED
:1009BC00DBB21A464FF48071784801F085F8764B1B
:1009CC009B785B08DBB203F00103DBB21A464FF4F1
:1009DC000071724801F078F86F4B9B789B08DBB282
:1009EC0003F00103DBB21A464FF480616B4801F04F
:1009FC006BF8694B9B78DB08DBB203F00103DBB2CD
:100A0C001A464FF40061654801F05EF8624B9B7822
:100A1C001B09DBB203F00103DBB21A464FF4805121
:100A2C005E4801F051F85C4B9B785B09DBB203F03C
:100A3C000103DBB21A464FF40051584801F044F858
:100A4C00554B9B789B09DBB203F00103DBB21A46D2
:100A5C004FF48041514801F037F84F4B9B78DB093C
:100A6C00DBB21A464FF400414C4801F02DF8E6E297
:100A7C0001220421474801F027F8012208214548AA
:100A8C0001F022F801224FF48061424801F01CF879
:100A9C0000224FF400613F4801F016F801224FF498
:100AAC0080513C4801F010F801224FF400513948B4
:100ABC0001F00AF801224FF48041364801F004F8A5
:100ACC0001224FF40041334800F0FEFF324BDB783B
:100ADC0003F00103DBB21A464FF480712F4800F08B
:100AEC00F3FF2D4BDB785B08DBB203F00103DBB2C9
:100AFC001A464FF40071294800F0E6FF264BDB78CC
:100B0C009B08DBB203F00103DBB21A464FF48061A1
:100B1C00224800F0D9FF204BDB78DB08DBB203F076
:100B2C000103DBB21A464FF400611C4800F0CCFF05
:100B3C00194BDB781B09DBB203F00103DBB21A465D
:100B4C004FF48051154800F0BFFF134BDB785B0965
:100B5C00DBB203F00103DBB21A464FF400510F482D
:100B6C0000F0B2FF0C4BDB789B09DBB203F0010306
:100B7C00DBB21A464FF48041084800F0A5FF064B43
:100B8C00DB78DB09DBB21A464FF40041034800F076
:100B9C009BFF54E20008014020000020000C0140A3
:100BAC0001220421904800F08FFF012208218E4879
:100BBC0000F08AFF01224FF480618B4800F084FF23
:100BCC0001224FF40061884800F07EFF00224FF4B0
:100BDC008051854800F078FF01224FF40051824883
:100BEC0000F072FF01224FF480417F4800F06CFF4F
:100BFC0001224FF400417C4800F066FF7B4B1B79CF
:100C0C0003F00103DBB21A464FF48071784800F010
:100C1C005BFF764B1B795B08DBB203F00103DBB2A5
:100C2C001A464FF40071724800F04EFF6F4B1B795F
:100C3C009B08DBB203F00103DBB21A464FF4806170
:100C4C006B4800F041FF694B1B79DB08DBB203F00A
:100C5C000103DBB21A464FF40061654800F034FF23
:100C6C00624B1B791B09DBB203F00103DBB21A46A2
:100C7C004FF480515E4800F027FF5C4B1B795B09F9
:100C8C00DBB203F00103DBB21A464FF400515848B3
:100C9C0000F01AFF554B1B799B09DBB203F00103E3
:100CAC00DBB21A464FF48041514800F00DFF4F4B18
:100CBC001B79DB09DBB21A464FF400414C4800F0BB
:100CCC0003FFBCE101220421474800F0FDFE012294
:100CDC000821454800F0F8FE01224FF4806142489B
:100CEC0000F0F2FE01224FF400613F4800F0ECFEF0
:100CFC0001224FF480513C4800F0E6FE00224FF4F4
:100D0C000051394800F0E0FE01224FF48041364892
:100D1C0000F0DAFE01224FF40041334800F0D4FE1B
:100D2C00324B5B7903F00103DBB21A464FF480714E
:100D3C002F4800F0C9FE2D4B5B795B08DBB203F04A
:100D4C000103DBB21A464FF40071294800F0BCFED7
:100D5C00264B5B799B08DBB203F00103DBB21A462E
:100D6C004FF48061224800F0AFFE204B5B79DB082A
:100D7C00DBB203F00103DBB21A464FF400611C48EE
:100D8C0000F0A2FE194B5B791B09DBB203F00103E7
:100D9C00DBB21A464FF48051154800F095FE134B08
:100DAC005B795B09DBB203F00103DBB21A464FF44B
:100DBC0000510F4800F088FE0C4B5B799B09DBB2AD
:100DCC0003F00103DBB21A464FF48041084800F0EF
:100DDC007BFE064B5B79DB09DBB21A464FF4004114
:100DEC00034800F071FE2AE10008014020000020B9
:100DFC00000C014001220421934800F065FE012201
:100E0C000821914800F060FE01224FF480618E4869
:100E1C0000F05AFE01224FF400618B4800F054FEA2
:100E2C0001224FF48051884800F04EFE01224FF40D
:100E3C000051854800F048FE00224FF48041824862
:100E4C0000F042FE01224FF400417F4800F03CFECE
:100E5C007E4B9B7903F00103DBB21A464FF4807191
:100E6C007B4800F031FE794B9B795B08DBB203F0D9
:100E7C000103DBB21A464FF40071754800F024FEF2
:100E8C00724B9B799B08DBB203F00103DBB21A4671
:100E9C004FF480616E4800F017FE6C4B9B79DB08B9
:100EAC00DBB203F00103DBB21A464FF40061684871
:100EBC0000F00AFE654B9B791B09DBB203F00103C2
:100ECC00DBB21A464FF48051614800F0FDFD5F4BD8
:100EDC009B795B09DBB203F00103DBB21A464FF4DA
:100EEC0000515B4800F0F0FD584B9B799B09DBB23D
:100EFC0003F00103DBB21A464FF48041544800F072
:100F0C00E3FD524B9B79DB09DBB21A464FF40041EF
:100F1C004F4800F0D9FD92E0012204214A4800F02C
:100F2C00D3FD01220821484800F0CEFD01224FF4E8
:100F3C008061454800F0C8FD01224FF40061424831
:100F4C0000F0C2FD01224FF480513F4800F0BCFD7F
:100F5C0001224FF400513C4800F0B6FD01224FF441
:100F6C008041394800F0B0FD00224FF40041364872
:100F7C0000F0AAFD354BDB7903F00103DBB21A4616
:100F8C004FF48071324800F09FFD304BDB795B08E9
:100F9C00DBB203F00103DBB21A464FF400712C48AC
:100FAC0000F092FD294BDB799B08DBB203F00103C7
:100FBC00DBB21A464FF48061254800F085FD234BC7
:100FCC00DB79DB08DBB203F00103DBB21A464FF42A
:100FDC0000611F4800F078FD1C4BDB791B09DBB26C
:100FEC0003F00103DBB21A464FF48051184800F0AD
:100FFC006BFD164BDB795B09DBB203F00103DBB253
:10100C001A464FF40051124800F05EFD0F4BDB798D
:10101C009B09DBB203F00103DBB21A464FF48041AB
:10102C000B4800F051FD094BDB79DB09DBB21A46AA
:10103C004FF40041064800F047FD00E000BF00BF40
:10104C000837BD4680BD00BF0008014020000020CD
:10105C00000C014080B483B000AF0346FB71FB79F8
:10106C00412B18D10F4BFF221A700E4B01225A70D4
:10107C000C4B00229A700B4BCC22DA70094BCC2211
:10108C001A71084B00225A71064B01229A71054BBA
:10109C00FF22DA7100E000BF00BF0C37BD4680BCF8
:1010AC00704700BF2000002080B500AF00F020FA90
:1010BC0000F08CF800F012F900F0C4F8394801F097
:1010CC006DF9394B01221A60384B01221A60384BEA
:1010DC0001221A60364B1B68012B0DD10A20FFF739
:1010EC0063F84120FFF7B6FF324B1B685A1C31499D
:1010FC000A601846FFF7E2FA2C4B1B68012B27D12C
:10110C004FF47A70FFF736F82B4B1B6801332A4AE1
:10111C001360294B1B683B2B07DD274B00221A6001
:10112C00264B1B680133254A1360244B1B683B2B51
:10113C0007DD224B00221A60214B1B680133204A29
:10114C0013601F4B1B68172B02DD1D4B00221A600E
:10115C00154B1B68012B15D14FF4FA70FEF7F0FFFD
:10116C002021184800F0C8FC1021164800F0C4FCDF
:10117C00FFF764FA144B1B685A1C13490A60184693
:10118C00FFF7F4F9104B1B68042B02D10E4B002215
:10119C001A60084B1B68082B9CD1064B00221A6066
:1011AC0098E700BF68000020540000205C0000207D
:1011BC0064000020B40000201C0000201800002057
:1011CC001400002000080140B000002080B590B051
:1011DC0000AF07F1180328220021184601F096FCF5
:1011EC003B1D00221A605A609A60DA601A61022371
:1011FC00BB610123BB621023FB6200237B6307F1FD
:10120C001803184600F092FC0346002B01D000F0A6
:10121C00C5F80F237B600023BB600023FB60002319
:10122C003B6100237B613B1D0021184600F000FF51
:10123C000346002B01D000F0B1F800BF4037BD468B
:10124C0080BD000080B586B000AF07F10803002216
:10125C001A605A609A60DA603B4600221A605A6043
:10126C001D4B4FF080421A601B4B41F63F725A6087
:10127C00194B00229A60184B0A22DA60164B002296
:10128C001A61154B00229A61134801F037F8034696
:10129C00002B01D000F082F84FF48053BB6007F1B3
:1012AC00080319460C4801F0CDF90346002B01D078
:1012BC0000F074F800233B6000237B603B4619462A
:1012CC00054801F095FB0346002B01D000F066F8B1
:1012DC0000BF1837BD4680BD6800002080B586B0C1
:1012EC0000AF07F1080300221A605A609A60DA60B6
:1012FC00224B9B69214A43F0040393611F4B9B696A
:10130C0003F004037B607B681C4B9B691B4A43F016
:10131C0008039361194B9B6903F008033B603B681E
:10132C0000224FF6FC71164800F0CEFB00224FF65F
:10133C007F71144800F0C8FB4FF6FC73BB600123AF
:10134C00FB6000233B6102237B6107F10803194614
:10135C000B4800F03DFA4FF67F73BB600123FB6036
:10136C0000233B6102237B6107F108031946054802
:10137C0000F02EFA00BF1837BD4680BD00100240A9
:10138C0000080140000C014080B582B000AF7860CD
:10139C00FEF724FF00BF0837BD4680BD80B400AF08
:1013AC0072B600BFFEE7000080B483B000AF0E4BF6
:1013BC009B690D4A43F0010393610B4B9B6903F04E
:1013CC0001037B607B68084BDB69074A43F0805361
:1013DC00D361054BDB6903F080533B603B6800BF76
:1013EC000C37BD4680BC70470010024080B584B0FD
:1013FC0000AF78607B681B68B3F1804F13D10C4B46
:10140C00DB690B4A43F00103D361094BDB6903F041
:10141C000103FB60FB68002200211C2000F0A1F9F5
:10142C001C2000F0BAF900BF1037BD4680BD00BFCC
:10143C000010024080B400AFFEE780B400AFFEE7BE
:10144C0080B400AFFEE780B400AFFEE780B400AF1D
:10145C00FEE780B400AF00BFBD4680BC704780B4CF
:10146C0000AF00BFBD4680BC704780B400AF00BF6A
:10147C00BD4680BC704780B500AF00F07FF800BF60
:10148C0080BD000080B500AF024800F0D3FF00BF64
:10149C0080BD00BF6800002080B400AF00BFBD4617
:1014AC0080BC70470C480D490D4A002302E0D4580B
:1014BC00C4500433C4188C42F9D30A4A0A4C002392
:1014CC0001E013600432A242FBD3FFF7E5FF01F009
:1014DC00F9FAFFF7E9FD7047000000203400002006
:1014EC00682B000834000020BC000020FEE7000040
:1014FC0080B500AF084B1B68074A43F0100313601C
:10150C00032000F023F90F2000F008F8FFF74CFF40
:10151C000023184680BD00BF0020024080B582B079
:10152C0000AF7860124B1A68124B1B7819464FF4B7
:10153C007A73B3FBF1F3B2FBF3F3184600F03BF90B
:10154C000346002B01D001230EE07B680F2B0AD839
:10155C00002279684FF0FF3000F003F9064A7B68EF
:10156C001360002300E0012318460837BD4680BDF8
:10157C0028000020300000202C00002080B400AF98
:10158C00054B1B781A46054B1B681344034A136022
:10159C0000BFBD4680BC704730000020B800002062
:1015AC0080B400AF024B1B681846BD4680BC704728
:1015BC00B800002080B485B000AF78607B6803F081
:1015CC000703FB600C4BDB68BB60BA684FF6FF038C
:1015DC001340BB60FB681A02BB68134343F0BF6344
:1015EC0043F40033BB60044ABB68D36000BF1437BC
:1015FC00BD4680BC704700BF00ED00E080B400AF7A
:10160C00044BDB681B0A03F007031846BD4680BC7D
:10161C00704700BF00ED00E080B483B000AF03461C
:10162C00FB7197F90730002B0BDBFB7903F01F02E2
:10163C00064997F907305B09012000FA02F241F8DC
:10164C00232000BF0C37BD4680BC704700E100E092
:10165C0080B483B000AF03463960FB7197F9073053
:10166C00002B0ADB3B68DAB20C4997F90730120100
:10167C00D2B20B4483F800230AE03B68DAB2084983
:10168C00FB7903F00F03043B1201D2B20B441A7620
:10169C0000BF0C37BD4680BC704700BF00E100E0C6
:1016AC0000ED00E080B489B000AFF860B9607A60FA
:1016BC00FB6803F00703FB61FB69C3F10703042B11
:1016CC0028BF0423BB61FB690433062B02D9FB69D9
:1016DC00033B00E000237B614FF0FF32BB6902FA51
:1016EC0003F3DA43BB681A407B699A404FF0FF3131
:1016FC007B6901FA03F3D9437B680B40134318460B
:10170C002437BD4680BC704780B582B000AF78608E
:10171C007B68013BB3F1807F01D301230FE00A4AC0
:10172C007B68013B53600F214FF0FF30FFF790FFB8
:10173C00054B00229A60044B07221A6000231846BE
:10174C000837BD4680BD00BF10E000E080B582B018
:10175C0000AF78607868FFF72DFF00BF0837BD46F3
:10176C0080BD80B586B000AF0346B9607A60FB736C
:10177C0000237B61FFF742FF78617A68B96878696A
:10178C00FFF790FF024697F90F3011461846FFF706
:10179C005FFF00BF1837BD4680BD80B582B000AF7B
:1017AC000346FB7197F907301846FFF735FF00BF6A
:1017BC000837BD4680BD80B582B000AF78607868D0
:1017CC00FFF7A2FF034618460837BD4680BD000050
:1017DC0080B48BB000AF7860396000237B6200234B
:1017EC003B6261E101227B6A02FA03F3FB613B6815
:1017FC001B68FA691340BB61BA69FB699A4240F0F5
:10180C0050813B685B68974A93425ED0954A9342FD
:10181C0075D8954A934258D0934A93426FD8934ABD
:10182C00934252D0914A934269D8914A93424CD0F8
:10183C008F4A934263D88F4A934246D08D4A934243
:10184C005DD8122B2AD8122B59D801A252F823F0AA
:10185C00D7180008B1180008C318000805190008AB
:10186C000B1900080B1900080B1900080B190008BC
:10187C000B1900080B1900080B1900080B190008AC
:10188C000B1900080B1900080B1900080B1900089C
:10189C000B190008B9180008CD180008764A9342B5
:1018AC0013D02CE03B68DB683B6229E03B68DB68CB
:1018BC0004333B6224E03B68DB6808333B621FE087
:1018CC003B68DB680C333B621AE03B689B68002B7F
:1018DC0002D104233B6213E03B689B68012B05D1CA
:1018EC0008233B627B68FA691A6109E008233B62B2
:1018FC007B68FA695A6103E000233B6200E000BF99
:10190C00BB69FF2B01D87B6801E07B6804337B61EA
:10191C00BB69FF2B02D87B6A9B0002E07B6A083B09
:10192C009B003B617B691A680F213B6901FA03F349
:10193C00DB431A40396A3B6901FA03F31A437B69AA
:10194C001A603B685B6803F08053002B00F0A980A1
:10195C004A4B9B69494A43F001039361474B9B698E
:10196C0003F00103BB60BB68454A7B6A9B080233EA
:10197C0052F82330FB607B6A03F003039B000F22B9
:10198C0002FA03F3DB43FA681340FB607B683D4AC1
:10199C0093420DD07B683C4A934207D07B683B4A0C
:1019AC00934201D1022304E0032302E0012300E06F
:1019BC0000237A6A02F0030292009340FA68134300
:1019CC00FB602F497B6A9B080233FA6841F823209D
:1019DC003B685B6803F48033002B06D02C4B1A68F1
:1019EC002B49BB6913430B6006E0294B1A68BB6992
:1019FC00DB43274913400B603B685B6803F40033FF
:101A0C00002B06D0224B5A682149BB6913434B600B
:101A1C0006E01F4B5A68BB69DB431D4913404B6002
:101A2C003B685B6803F48013002B06D0184B9A6854
:101A3C001749BB6913438B6006E0154B9A68BB6969
:101A4C00DB43134913408B603B685B6803F4001362
:101A5C00002B1FD00E4BDA680D49BB691343CB60CA
:101A6C001FE000BF000032100000311000002210F7
:101A7C000000211000001210000011100010024094
:101A8C000000014000080140000C01400010014022
:101A9C00000401400B4BDA68BB69DB430949134076
:101AAC00CB607B6A01337B623B681A687B6A22FAE3
:101ABC0003F3002B7FF496AE00BF00BF2C37BD465E
:101ACC0080BC70470004014080B483B000AF7860E4
:101ADC000B467B8013467B707B78002B03D07A8877
:101AEC007B681A6103E07B881A047B681A6100BF6B
:101AFC000C37BD4680BC704780B485B000AF7860B1
:101B0C000B467B807B68DB68FB607A88FB68134044
:101B1C001A04FB68D9437B880B401A437B681A6113
:101B2C0000BF1437BD4680BC7047000080B586B03E
:101B3C0000AF78607B68002B01D1012372E27B68D7
:101B4C001B6803F00103002B00F08780924B5B684D
:101B5C0003F00C03042B0CD08F4B5B6803F00C03CD
:101B6C00082B12D18C4B5B6803F48033B3F5803FA8
:101B7C000BD1894B1B6803F40033002B6CD07B68B2
:101B8C005B68002B68D101234CE27B685B68B3F582
:101B9C00803F06D1804B1B687F4A43F4803313602F
:101BAC002EE07B685B68002B0CD17B4B1B687A4A60
:101BBC0023F480331360784B1B68774A23F480231B
:101BCC0013601DE07B685B68B3F5A02F0CD1724BE2
:101BDC001B68714A43F4802313606F4B1B686E4A79
:101BEC0043F4803313600BE06B4B1B686A4A23F49D
:101BFC0080331360684B1B68674A23F4802313609F
:101C0C007B685B68002B13D0FFF7CAFC386108E0D7
:101C1C00FFF7C6FC02463B69D31A642B01D9032398
:101C2C0000E25D4B1B6803F40033002BF0D014E092
:101C3C00FFF7B6FC386108E0FFF7B2FC02463B69DF
:101C4C00D31A642B01D90323ECE1534B1B6803F427
:101C5C000033002BF0D100E000BF7B681B6803F061
:101C6C000203002B63D04C4B5B6803F00C03002B7E
:101C7C000BD0494B5B6803F00C03082B1CD1464B73
:101C8C005B6803F48033002B16D1434B1B6803F0C5
:101C9C000203002B05D07B681B69012B01D00123AB
:101CAC00C0E13D4B1B6823F0F8027B685B69DB00ED
:101CBC00394913430B603AE07B681B69002B20D039
:101CCC00364B01221A60FFF76BFC386108E0FFF716
:101CDC0067FC02463B69D31A022B01D90323A1E10D
:101CEC002D4B1B6803F00203002BF0D02A4B1B6812
:101CFC0023F0F8027B685B69DB00274913430B6018
:101D0C0015E0264B00221A60FFF74AFC386108E008
:101D1C00FFF746FC02463B69D31A022B01D9032379
:101D2C0080E11D4B1B6803F00203002BF0D17B6894
:101D3C001B6803F00803002B3AD07B689B69002BCF
:101D4C0019D0174B01221A60FFF72AFC386108E002
:101D5C00FFF726FC02463B69D31A022B01D9032359
:101D6C0060E10D4B5B6A03F00203002BF0D0012005
:101D7C0000F0A6FA1CE00A4B00221A60FFF710FCD8
:101D8C0038610FE0FFF70CFC02463B69D31A022BBB
:101D9C0008D9032346E100BF001002400000424274
:101DAC0080044242924B5B6A03F00203002BE9D1A0
:101DBC007B681B6803F00403002B00F0A680002353
:101DCC00FB758B4BDB6903F08053002B0DD1884BDB
:101DDC00DB69874A43F08053D361854BDB6903F0A1
:101DEC008053BB60BB680123FB75824B1B6803F4FB
:101DFC008073002B18D17F4B1B687E4A43F4807391
:101E0C001360FFF7CDFB386108E0FFF7C9FB024612
:101E1C003B69D31A642B01D9032303E1754B1B686F
:101E2C0003F48073002BF0D07B68DB68012B06D1A8
:101E3C006F4B1B6A6E4A43F0010313622DE07B6803
:101E4C00DB68002B0CD16A4B1B6A694A23F0010337
:101E5C001362674B1B6A664A23F0040313621CE08F
:101E6C007B68DB68052B0CD1614B1B6A604A43F025
:101E7C00040313625E4B1B6A5D4A43F00103136259
:101E8C000BE05B4B1B6A5A4A23F001031362584B5D
:101E9C001B6A574A23F0040313627B68DB68002B30
:101EAC0015D0FFF77DFB38610AE0FFF779FB02469E
:101EBC003B69D31A41F28832934201D90323B1E032
:101ECC004B4B1B6A03F00203002BEED014E0FFF720
:101EDC0067FB38610AE0FFF763FB02463B69D31AE4
:101EEC0041F28832934201D903239BE0404B1B6A99
:101EFC0003F00203002BEED1FB7D012B05D13C4BF3
:101F0C00DB693B4A23F08053D3617B68DB69002B90
:101F1C0000F08780364B5B6803F00C03082B61D014
:101F2C007B68DB69022B46D1334B00221A60FFF72A
:101F3C0037FB386108E0FFF733FB02463B69D31AE5
:101F4C00022B01D903236DE0294B1B6803F00073AE
:101F5C00002BF0D17B681B6AB3F5803F08D1244B72
:101F6C005B6823F400327B689B68214913434B6008
:101F7C001F4B5B6823F474127B68196A7B685B6A7D
:101F8C000B431B4913434B601B4B01221A60FFF799
:101F9C0007FB386108E0FFF703FB02463B69D31AE5
:101FAC00022B01D903233DE0114B1B6803F0007396
:101FBC00002BF0D035E0104B00221A60FFF7F0FA3E
:101FCC00386108E0FFF7ECFA02463B69D31A022BA2
:101FDC0001D9032326E0064B1B6803F00073002B8A
:101FEC00F0D11EE07B68DB69012B07D1012319E0DE
:101FFC000010024000700040600042420B4B5B68D6
:10200C00FB60FB6803F480327B681B6A9A4206D142
:10201C00FB6803F470127B685B6A9A4201D001235F
:10202C0000E0002318461837BD4680BD0010024062
:10203C0080B584B000AF786039607B68002B01D12B
:10204C000123D0E06A4B1B6803F007033A689A42FD
:10205C0010D9674B1B6823F0070265493B68134393
:10206C000B60634B1B6803F007033A689A4201D07C
:10207C000123B8E07B681B6803F00203002B20D01F
:10208C007B681B6803F00403002B05D0594B5B687D
:10209C00584A43F4E06353607B681B6803F0080301
:1020AC00002B05D0534B5B68524A43F4605353608A
:1020BC00504B5B6823F0F0027B689B684D491343DF
:1020CC004B607B681B6803F00103002B40D07B68DE
:1020DC005B68012B07D1474B1B6803F40033002BC3
:1020EC0015D101237FE07B685B68022B07D1414B44
:1020FC001B6803F00073002B09D1012373E03D4BE7
:10210C001B6803F00203002B01D101236BE0394B58
:10211C005B6823F003027B685B68364913434B60B2
:10212C00FFF73EFAF8600AE0FFF73AFA0246FB685E
:10213C00D31A41F28832934201D9032353E02D4B39
:10214C005B6803F00C027B685B689B009A42EBD1E6
:10215C00274B1B6803F007033A689A4210D2244BB2
:10216C001B6823F0070222493B6813430B60204B8A
:10217C001B6803F007033A689A4201D0012332E04E
:10218C007B681B6803F00403002B08D0194B5B68B9
:10219C0023F4E0627B68DB68164913434B607B6871
:1021AC001B6803F00803002B09D0124B5B6823F467
:1021BC0060527B681B69DB000E4913434B6000F0D7
:1021CC0021F802460B4B5B681B0903F00F030A490D
:1021DC00CB5C22FA03F3094A1360094B1B681846BF
:1021EC00FFF79CF9002318461037BD4680BD00BF91
:1021FC000020024000100240502B00082800002054
:10220C002C00002090B48AB000AF294B3C1D0FCBA2
:10221C0084E80F0040F201233B800023FB61002384
:10222C00BB6100237B6200237B6100233B62214B5B
:10223C005B68FB61FB6903F00C03042B02D0082BD9
:10224C0003D02BE01C4B3B622BE0FB699B0C03F097
:10225C000F0328333B4413F8243C7B61FB6903F4E4
:10226C008033002B12D0134B5B685B0C03F0010323
:10227C0028333B4413F8283CBB617B690E4A03FBB3
:10228C0002F2BB69B2FBF3F37B6204E07B690B4A9D
:10229C0002FB03F37B627B6A3B6202E0064B3B6210
:1022AC0000BF3B6A18462837BD4690BC704700BF3C
:1022BC00402B00080010024000127A0000093D007B
:1022CC0080B485B000AF78600A4B1B680A4AA2FB49
:1022DC0003235B0A7A6802FB03F3FB6000BFFB6815
:1022EC005A1EFA60002BF9D100BF00BF1437BD464F
:1022FC0080BC704728000020D34D621080B582B09E
:10230C0000AF78607B68002B01D1012341E07B6832
:10231C0093F83D30DBB2002B06D17B68002283F8AA
:10232C003C207868FFF762F87B68022283F83D2036
:10233C007B681A687B6804331946104600F06AFA09
:10234C007B68012283F846207B68012283F83E20BB
:10235C007B68012283F83F207B68012283F84020B0
:10236C007B68012283F841207B68012283F842209C
:10237C007B68012283F843207B68012283F8442088
:10238C007B68012283F845207B68012283F83D207D
:10239C00002318460837BD4680BD000080B485B0C8
:1023AC0000AF78607B6893F83D30DBB2012B01D035
:1023BC00012335E07B68022283F83D207B681B6893
:1023CC00DA687B681B6842F00102DA607B681B6884
:1023DC00164A934209D07B681B68B3F1804F04D036
:1023EC007B681B68124A934211D17B681B689B68FF
:1023FC0003F00703FB60FB68062B10D07B681B689F
:10240C001A687B681B6842F001021A6007E07B685F
:10241C001B681A687B681B6842F001021A60002373
:10242C0018461437BD4680BC704700BF002C0140D5
:10243C000004004080B582B000AF78607B681B68F8
:10244C001B6903F00203022B22D17B681B68DB683B
:10245C0003F00203022B1BD17B681B686FF0020296
:10246C001A617B6801221A777B681B689B6903F0F1
:10247C000303002B03D0786800F0B1F905E078680D
:10248C0000F0A4F9786800F0B3F97B6800221A77A1
:10249C007B681B681B6903F00403042B22D17B6847
:1024AC001B68DB6803F00403042B1BD17B681B68DF
:1024BC006FF004021A617B6802221A777B681B6832
:1024CC009B6903F44073002B03D0786800F087F904
:1024DC0005E0786800F07AF9786800F089F97B6893
:1024EC0000221A777B681B681B6903F00803082B12
:1024FC0022D17B681B68DB6803F00803082B1BD117
:10250C007B681B686FF008021A617B6804221A77DB
:10251C007B681B68DB6903F00303002B03D078682E
:10252C0000F05DF905E0786800F050F9786800F08B
:10253C005FF97B6800221A777B681B681B6903F0C4
:10254C001003102B22D17B681B68DB6803F010038F
:10255C00102B1BD17B681B686FF010021A617B6813
:10256C0008221A777B681B68DB6903F44073002B25
:10257C0003D0786800F033F905E0786800F026F9AC
:10258C00786800F035F97B6800221A777B681B6845
:10259C001B6903F00103012B0ED17B681B68DB6800
:1025AC0003F00103012B07D17B681B686FF001025C
:1025BC001A617868FEF7E8FE7B681B681B6903F0FC
:1025CC008003802B0ED17B681B68DB6803F08003D3
:1025DC00802B07D17B681B686FF080021A617868CA
:1025EC0000F067FA7B681B681B6903F04003402B03
:1025FC000ED17B681B68DB6803F04003402B07D1CE
:10260C007B681B686FF040021A61786800F0F9F87B
:10261C007B681B681B6903F02003202B0ED17B68A1
:10262C001B68DB6803F02003202B07D17B681B6839
:10263C006FF020021A61786800F032FA00BF083798
:10264C00BD4680BD80B584B000AF786039607B68D2
:10265C0093F83C30012B01D10223B3E07B680122BB
:10266C0083F83C207B68022283F83D207B681B6842
:10267C009B68FB60FB6823F07703FB60FB6823F42B
:10268C007F43FB607B681B68FA689A603B681B6839
:10269C00B3F5005F3ED0B3F5005F00F28780B3F571
:1026AC00805F00F08580B3F5805F7FD8702B1AD0E7
:1026BC00702B7BD8602B50D0602B77D8502B3CD014
:1026CC00502B73D8402B58D0402B6FD8302B64D064
:1026DC00302B6BD8202B60D0202B67D8002B5CD0F4
:1026EC00102B5AD062E07B6818683B6899683B688D
:1026FC005A683B68DB6800F05CF97B681B689B6878
:10270C00FB60FB6843F07703FB607B681B68FA682F
:10271C009A604EE07B6818683B6899683B685A6819
:10272C003B68DB6800F045F97B681B689A687B683E
:10273C001B6842F480429A603BE07B6818683B68F7
:10274C0059683B68DB681A4600F0BCF87B681B686C
:10275C005021184600F013F92BE07B6818683B6891
:10276C0059683B68DB681A4600F0DAF87B681B682E
:10277C006021184600F003F91BE07B6818683B6881
:10278C0059683B68DB681A4600F09CF87B681B684C
:10279C004021184600F0F3F80BE07B681A683B68A0
:1027AC001B681946104600F0EAF802E000BF00E092
:1027BC0000BF7B68012283F83D207B68002283F8F0
:1027CC003C20002318461037BD4680BD80B483B032
:1027DC0000AF786000BF0C37BD4680BC704780B43A
:1027EC0083B000AF786000BF0C37BD4680BC70472B
:1027FC0080B483B000AF786000BF0C37BD4680BC9E
:10280C00704780B483B000AF786000BF0C37BD4612
:10281C0080BC704780B485B000AF786039607B684D
:10282C001B68FB607B68254A934207D07B68B3F139
:10283C00804F03D07B68224A934208D1FB6823F077
:10284C007003FB603B685B68FA681343FB607B6852
:10285C001A4A934207D07B68B3F1804F03D07B6850
:10286C00174A934208D1FB6823F44073FB603B6822
:10287C00DB68FA681343FB60FB6823F080023B685B
:10288C005B691343FB607B68FA681A603B689A6863
:10289C007B68DA623B681A687B689A627B68074AD5
:1028AC00934203D13B681A697B681A637B680122E7
:1028BC005A6100BF1437BD4680BC7047002C0140E4
:1028CC000004004080B487B000AFF860B9607A6053
:1028DC00FB681B6A7B61FB681B6A23F00102FB68C7
:1028EC001A62FB689B693B613B6923F0F0033B6117
:1028FC007B681B013A6913433B617B6923F00A0334
:10290C007B617A69BB6813437B61FB683A699A61A6
:10291C00FB687A691A6200BF1C37BD4680BC7047E1
:10292C0080B487B000AFF860B9607A60FB681B6A4E
:10293C0023F01002FB681A62FB689B697B61FB68E1
:10294C001B6A3B617B6923F470437B617B681B03CF
:10295C007A6913437B613B6923F0A0033B61BB683D
:10296C001B013A6913433B61FB687A699A61FB6806
:10297C003A691A6200BF1C37BD4680BC704780B4F0
:10298C0085B000AF786039607B689B68FB60FB6842
:10299C0023F07003FB603A68FB68134343F00703B2
:1029AC00FB607B68FA689A6000BF1437BD4680BC38
:1029BC00704780B487B000AFF860B9607A603B6054
:1029CC00FB689B687B617B6923F47F437B613B687D
:1029DC001A027B681A43BB6813437A6913437B6101
:1029EC00FB687A699A6000BF1C37BD4680BC704793
:1029FC0080B485B000AF786039607B6893F83C3068
:102A0C00012B01D1022341E07B68012283F83C2099
:102A1C007B68022283F83D207B681B685B68FB6047
:102A2C007B681B689B68BB60FB6823F07003FB60D2
:102A3C003B681B68FA681343FB607B681B68FA6889
:102A4C005A607B681B68144A934209D07B681B68E8
:102A5C00B3F1804F04D07B681B68104A93420CD1B1
:102A6C00BB6823F08003BB603B685B68BA681343A8
:102A7C00BB607B681B68BA689A607B68012283F82C
:102A8C003D207B68002283F83C2000231846143735
:102A9C00BD4680BC704700BF002C014000040040C4
:102AAC0080B483B000AF786000BF0C37BD4680BCEB
:102ABC00704780B483B000AF786000BF0C37BD4660
:102ACC0080BC704770B500260C4D0D4C641BA410D7
:102ADC00A64209D100F022F800260A4D0A4C641BCC
:102AEC00A410A64205D170BD55F8043B9847013699
:102AFC00EEE755F8043B98470136F2E7602B0008E7
:102B0C00602B0008602B0008642B0008034602446D
:102B1C00934200D1704703F8011BF9E7F8B500BFE9
:102B2C00F8BC08BC9E467047F8B500BFF8BC08BCA2
:042B3C009E467047FA
:102B400002030405060708090A0B0C0D0E0F1010EE
:102B5000000000000000000001020304060708094D
:042B60003101000837
:042B64000D01000857
:102B68000A0000000100000002000000030000004D
:102B7800040000000F000000080000003200000000
:102B880001020304050607080024F40010000000F1
:042B98000100000038
:04000005080014B12A
:00000001FF
